{"contracts/AddresstoEmail.sol":{"Address_to_Email":{"abi":[{"anonymous":false,"inputs":[{"indexed":false,"internalType":"bool","name":"callStatus","type":"bool"},{"indexed":false,"internalType":"address","name":"sender","type":"address"},{"indexed":false,"internalType":"address","name":"reciever","type":"address"}],"name":"TransactionStatus","type":"event"},{"anonymous":false,"inputs":[{"indexed":false,"internalType":"string","name":"email","type":"string"},{"indexed":false,"internalType":"address","name":"addr","type":"address"}],"name":"emailStored","type":"event"},{"inputs":[{"internalType":"string","name":"_email","type":"string"}],"name":"getAddr","outputs":[{"internalType":"address","name":"","type":"address"}],"stateMutability":"view","type":"function"},{"inputs":[{"internalType":"address payable","name":"_addr","type":"address"}],"name":"payToAddr","outputs":[],"stateMutability":"payable","type":"function"},{"inputs":[{"internalType":"string","name":"","type":"string"}],"name":"s_email_to_addr","outputs":[{"internalType":"address","name":"","type":"address"}],"stateMutability":"view","type":"function"},{"inputs":[{"internalType":"string","name":"_email","type":"string"},{"internalType":"address","name":"_addr","type":"address"}],"name":"storeEmailtoAddr","outputs":[],"stateMutability":"nonpayable","type":"function"}],"devdoc":{"kind":"dev","methods":{},"version":1},"evm":{"bytecode":{"linkReferences":{},"object":"608060405234801561001057600080fd5b506108a5806100206000396000f3fe60806040526004361061003f5760003560e01c806310a9e9d2146100445780634c1582aa1461006d5780637605538914610089578063d502db97146100c6575b600080fd5b34801561005057600080fd5b5061006b600480360381019061006691906104d0565b610103565b005b6100876004803603810190610082919061056a565b61019d565b005b34801561009557600080fd5b506100b060048036038101906100ab9190610597565b610288565b6040516100bd91906105ef565b60405180910390f35b3480156100d257600080fd5b506100ed60048036038101906100e89190610597565b6102d1565b6040516100fa91906105ef565b60405180910390f35b80600083604051610114919061067b565b908152602001604051809103902060006101000a81548173ffffffffffffffffffffffffffffffffffffffff021916908373ffffffffffffffffffffffffffffffffffffffff1602179055507f6360ad0ac3c8ab10798a0f6d8520b7ff6b11c5e9e551e31b32f412e9d9e3000582826040516101919291906106dc565b60405180910390a15050565b60008173ffffffffffffffffffffffffffffffffffffffff16346040516101c39061073d565b60006040518083038185875af1925050503d8060008114610200576040519150601f19603f3d011682016040523d82523d6000602084013e610205565b606091505b5050905080610249576040517f08c379a00000000000000000000000000000000000000000000000000000000081526004016102409061079e565b60405180910390fd5b7f41f5d8bdb5631ef260ce5fb88cf0a48c22d261827bebce333beb5963b3fe3edd81338460405161027c93929190610838565b60405180910390a15050565b6000818051602081018201805184825260208301602085012081835280955050505050506000915054906101000a900473ffffffffffffffffffffffffffffffffffffffff1681565b600080826040516102e2919061067b565b908152602001604051809103902060009054906101000a900473ffffffffffffffffffffffffffffffffffffffff169050919050565b6000604051905090565b600080fd5b600080fd5b600080fd5b600080fd5b6000601f19601f8301169050919050565b7f4e487b7100000000000000000000000000000000000000000000000000000000600052604160045260246000fd5b61037f82610336565b810181811067ffffffffffffffff8211171561039e5761039d610347565b5b80604052505050565b60006103b1610318565b90506103bd8282610376565b919050565b600067ffffffffffffffff8211156103dd576103dc610347565b5b6103e682610336565b9050602081019050919050565b82818337600083830152505050565b6000610415610410846103c2565b6103a7565b90508281526020810184848401111561043157610430610331565b5b61043c8482856103f3565b509392505050565b600082601f8301126104595761045861032c565b5b8135610469848260208601610402565b91505092915050565b600073ffffffffffffffffffffffffffffffffffffffff82169050919050565b600061049d82610472565b9050919050565b6104ad81610492565b81146104b857600080fd5b50565b6000813590506104ca816104a4565b92915050565b600080604083850312156104e7576104e6610322565b5b600083013567ffffffffffffffff81111561050557610504610327565b5b61051185828601610444565b9250506020610522858286016104bb565b9150509250929050565b600061053782610472565b9050919050565b6105478161052c565b811461055257600080fd5b50565b6000813590506105648161053e565b92915050565b6000602082840312156105805761057f610322565b5b600061058e84828501610555565b91505092915050565b6000602082840312156105ad576105ac610322565b5b600082013567ffffffffffffffff8111156105cb576105ca610327565b5b6105d784828501610444565b91505092915050565b6105e981610492565b82525050565b600060208201905061060460008301846105e0565b92915050565b600081519050919050565b600081905092915050565b60005b8381101561063e578082015181840152602081019050610623565b60008484015250505050565b60006106558261060a565b61065f8185610615565b935061066f818560208601610620565b80840191505092915050565b6000610687828461064a565b915081905092915050565b600082825260208201905092915050565b60006106ae8261060a565b6106b88185610692565b93506106c8818560208601610620565b6106d181610336565b840191505092915050565b600060408201905081810360008301526106f681856106a3565b905061070560208301846105e0565b9392505050565b600081905092915050565b50565b600061072760008361070c565b915061073282610717565b600082019050919050565b60006107488261071a565b9150819050919050565b7f63616c6c206973204661696c6975726500000000000000000000000000000000600082015250565b6000610788601083610692565b915061079382610752565b602082019050919050565b600060208201905081810360008301526107b78161077b565b9050919050565b60008115159050919050565b6107d3816107be565b82525050565b6000819050919050565b60006107fe6107f96107f484610472565b6107d9565b610472565b9050919050565b6000610810826107e3565b9050919050565b600061082282610805565b9050919050565b61083281610817565b82525050565b600060608201905061084d60008301866107ca565b61085a60208301856105e0565b6108676040830184610829565b94935050505056fea264697066735822122034ed3d64ca3d0ff8e117df7cc6e73450317a6765fae7011da20b386018ec4f4664736f6c63430008130033","opcodes":"PUSH1 0x80 PUSH1 0x40 MSTORE CALLVALUE DUP1 ISZERO PUSH2 0x10 JUMPI PUSH1 0x0 DUP1 REVERT JUMPDEST POP PUSH2 0x8A5 DUP1 PUSH2 0x20 PUSH1 0x0 CODECOPY PUSH1 0x0 RETURN INVALID PUSH1 0x80 PUSH1 0x40 MSTORE PUSH1 0x4 CALLDATASIZE LT PUSH2 0x3F JUMPI PUSH1 0x0 CALLDATALOAD PUSH1 0xE0 SHR DUP1 PUSH4 0x10A9E9D2 EQ PUSH2 0x44 JUMPI DUP1 PUSH4 0x4C1582AA EQ PUSH2 0x6D JUMPI DUP1 PUSH4 0x76055389 EQ PUSH2 0x89 JUMPI DUP1 PUSH4 0xD502DB97 EQ PUSH2 0xC6 JUMPI JUMPDEST PUSH1 0x0 DUP1 REVERT JUMPDEST CALLVALUE DUP1 ISZERO PUSH2 0x50 JUMPI PUSH1 0x0 DUP1 REVERT JUMPDEST POP PUSH2 0x6B PUSH1 0x4 DUP1 CALLDATASIZE SUB DUP2 ADD SWAP1 PUSH2 0x66 SWAP2 SWAP1 PUSH2 0x4D0 JUMP JUMPDEST PUSH2 0x103 JUMP JUMPDEST STOP JUMPDEST PUSH2 0x87 PUSH1 0x4 DUP1 CALLDATASIZE SUB DUP2 ADD SWAP1 PUSH2 0x82 SWAP2 SWAP1 PUSH2 0x56A JUMP JUMPDEST PUSH2 0x19D JUMP JUMPDEST STOP JUMPDEST CALLVALUE DUP1 ISZERO PUSH2 0x95 JUMPI PUSH1 0x0 DUP1 REVERT JUMPDEST POP PUSH2 0xB0 PUSH1 0x4 DUP1 CALLDATASIZE SUB DUP2 ADD SWAP1 PUSH2 0xAB SWAP2 SWAP1 PUSH2 0x597 JUMP JUMPDEST PUSH2 0x288 JUMP JUMPDEST PUSH1 0x40 MLOAD PUSH2 0xBD SWAP2 SWAP1 PUSH2 0x5EF JUMP JUMPDEST PUSH1 0x40 MLOAD DUP1 SWAP2 SUB SWAP1 RETURN JUMPDEST CALLVALUE DUP1 ISZERO PUSH2 0xD2 JUMPI PUSH1 0x0 DUP1 REVERT JUMPDEST POP PUSH2 0xED PUSH1 0x4 DUP1 CALLDATASIZE SUB DUP2 ADD SWAP1 PUSH2 0xE8 SWAP2 SWAP1 PUSH2 0x597 JUMP JUMPDEST PUSH2 0x2D1 JUMP JUMPDEST PUSH1 0x40 MLOAD PUSH2 0xFA SWAP2 SWAP1 PUSH2 0x5EF JUMP JUMPDEST PUSH1 0x40 MLOAD DUP1 SWAP2 SUB SWAP1 RETURN JUMPDEST DUP1 PUSH1 0x0 DUP4 PUSH1 0x40 MLOAD PUSH2 0x114 SWAP2 SWAP1 PUSH2 0x67B JUMP JUMPDEST SWAP1 DUP2 MSTORE PUSH1 0x20 ADD PUSH1 0x40 MLOAD DUP1 SWAP2 SUB SWAP1 KECCAK256 PUSH1 0x0 PUSH2 0x100 EXP DUP2 SLOAD DUP2 PUSH20 0xFFFFFFFFFFFFFFFFFFFFFFFFFFFFFFFFFFFFFFFF MUL NOT AND SWAP1 DUP4 PUSH20 0xFFFFFFFFFFFFFFFFFFFFFFFFFFFFFFFFFFFFFFFF AND MUL OR SWAP1 SSTORE POP PUSH32 0x6360AD0AC3C8AB10798A0F6D8520B7FF6B11C5E9E551E31B32F412E9D9E30005 DUP3 DUP3 PUSH1 0x40 MLOAD PUSH2 0x191 SWAP3 SWAP2 SWAP1 PUSH2 0x6DC JUMP JUMPDEST PUSH1 0x40 MLOAD DUP1 SWAP2 SUB SWAP1 LOG1 POP POP JUMP JUMPDEST PUSH1 0x0 DUP2 PUSH20 0xFFFFFFFFFFFFFFFFFFFFFFFFFFFFFFFFFFFFFFFF AND CALLVALUE PUSH1 0x40 MLOAD PUSH2 0x1C3 SWAP1 PUSH2 0x73D JUMP JUMPDEST PUSH1 0x0 PUSH1 0x40 MLOAD DUP1 DUP4 SUB DUP2 DUP6 DUP8 GAS CALL SWAP3 POP POP POP RETURNDATASIZE DUP1 PUSH1 0x0 DUP2 EQ PUSH2 0x200 JUMPI PUSH1 0x40 MLOAD SWAP2 POP PUSH1 0x1F NOT PUSH1 0x3F RETURNDATASIZE ADD AND DUP3 ADD PUSH1 0x40 MSTORE RETURNDATASIZE DUP3 MSTORE RETURNDATASIZE PUSH1 0x0 PUSH1 0x20 DUP5 ADD RETURNDATACOPY PUSH2 0x205 JUMP JUMPDEST PUSH1 0x60 SWAP2 POP JUMPDEST POP POP SWAP1 POP DUP1 PUSH2 0x249 JUMPI PUSH1 0x40 MLOAD PUSH32 0x8C379A000000000000000000000000000000000000000000000000000000000 DUP2 MSTORE PUSH1 0x4 ADD PUSH2 0x240 SWAP1 PUSH2 0x79E JUMP JUMPDEST PUSH1 0x40 MLOAD DUP1 SWAP2 SUB SWAP1 REVERT JUMPDEST PUSH32 0x41F5D8BDB5631EF260CE5FB88CF0A48C22D261827BEBCE333BEB5963B3FE3EDD DUP2 CALLER DUP5 PUSH1 0x40 MLOAD PUSH2 0x27C SWAP4 SWAP3 SWAP2 SWAP1 PUSH2 0x838 JUMP JUMPDEST PUSH1 0x40 MLOAD DUP1 SWAP2 SUB SWAP1 LOG1 POP POP JUMP JUMPDEST PUSH1 0x0 DUP2 DUP1 MLOAD PUSH1 0x20 DUP2 ADD DUP3 ADD DUP1 MLOAD DUP5 DUP3 MSTORE PUSH1 0x20 DUP4 ADD PUSH1 0x20 DUP6 ADD KECCAK256 DUP2 DUP4 MSTORE DUP1 SWAP6 POP POP POP POP POP POP PUSH1 0x0 SWAP2 POP SLOAD SWAP1 PUSH2 0x100 EXP SWAP1 DIV PUSH20 0xFFFFFFFFFFFFFFFFFFFFFFFFFFFFFFFFFFFFFFFF AND DUP2 JUMP JUMPDEST PUSH1 0x0 DUP1 DUP3 PUSH1 0x40 MLOAD PUSH2 0x2E2 SWAP2 SWAP1 PUSH2 0x67B JUMP JUMPDEST SWAP1 DUP2 MSTORE PUSH1 0x20 ADD PUSH1 0x40 MLOAD DUP1 SWAP2 SUB SWAP1 KECCAK256 PUSH1 0x0 SWAP1 SLOAD SWAP1 PUSH2 0x100 EXP SWAP1 DIV PUSH20 0xFFFFFFFFFFFFFFFFFFFFFFFFFFFFFFFFFFFFFFFF AND SWAP1 POP SWAP2 SWAP1 POP JUMP JUMPDEST PUSH1 0x0 PUSH1 0x40 MLOAD SWAP1 POP SWAP1 JUMP JUMPDEST PUSH1 0x0 DUP1 REVERT JUMPDEST PUSH1 0x0 DUP1 REVERT JUMPDEST PUSH1 0x0 DUP1 REVERT JUMPDEST PUSH1 0x0 DUP1 REVERT JUMPDEST PUSH1 0x0 PUSH1 0x1F NOT PUSH1 0x1F DUP4 ADD AND SWAP1 POP SWAP2 SWAP1 POP JUMP JUMPDEST PUSH32 0x4E487B7100000000000000000000000000000000000000000000000000000000 PUSH1 0x0 MSTORE PUSH1 0x41 PUSH1 0x4 MSTORE PUSH1 0x24 PUSH1 0x0 REVERT JUMPDEST PUSH2 0x37F DUP3 PUSH2 0x336 JUMP JUMPDEST DUP2 ADD DUP2 DUP2 LT PUSH8 0xFFFFFFFFFFFFFFFF DUP3 GT OR ISZERO PUSH2 0x39E JUMPI PUSH2 0x39D PUSH2 0x347 JUMP JUMPDEST JUMPDEST DUP1 PUSH1 0x40 MSTORE POP POP POP JUMP JUMPDEST PUSH1 0x0 PUSH2 0x3B1 PUSH2 0x318 JUMP JUMPDEST SWAP1 POP PUSH2 0x3BD DUP3 DUP3 PUSH2 0x376 JUMP JUMPDEST SWAP2 SWAP1 POP JUMP JUMPDEST PUSH1 0x0 PUSH8 0xFFFFFFFFFFFFFFFF DUP3 GT ISZERO PUSH2 0x3DD JUMPI PUSH2 0x3DC PUSH2 0x347 JUMP JUMPDEST JUMPDEST PUSH2 0x3E6 DUP3 PUSH2 0x336 JUMP JUMPDEST SWAP1 POP PUSH1 0x20 DUP2 ADD SWAP1 POP SWAP2 SWAP1 POP JUMP JUMPDEST DUP3 DUP2 DUP4 CALLDATACOPY PUSH1 0x0 DUP4 DUP4 ADD MSTORE POP POP POP JUMP JUMPDEST PUSH1 0x0 PUSH2 0x415 PUSH2 0x410 DUP5 PUSH2 0x3C2 JUMP JUMPDEST PUSH2 0x3A7 JUMP JUMPDEST SWAP1 POP DUP3 DUP2 MSTORE PUSH1 0x20 DUP2 ADD DUP5 DUP5 DUP5 ADD GT ISZERO PUSH2 0x431 JUMPI PUSH2 0x430 PUSH2 0x331 JUMP JUMPDEST JUMPDEST PUSH2 0x43C DUP5 DUP3 DUP6 PUSH2 0x3F3 JUMP JUMPDEST POP SWAP4 SWAP3 POP POP POP JUMP JUMPDEST PUSH1 0x0 DUP3 PUSH1 0x1F DUP4 ADD SLT PUSH2 0x459 JUMPI PUSH2 0x458 PUSH2 0x32C JUMP JUMPDEST JUMPDEST DUP2 CALLDATALOAD PUSH2 0x469 DUP5 DUP3 PUSH1 0x20 DUP7 ADD PUSH2 0x402 JUMP JUMPDEST SWAP2 POP POP SWAP3 SWAP2 POP POP JUMP JUMPDEST PUSH1 0x0 PUSH20 0xFFFFFFFFFFFFFFFFFFFFFFFFFFFFFFFFFFFFFFFF DUP3 AND SWAP1 POP SWAP2 SWAP1 POP JUMP JUMPDEST PUSH1 0x0 PUSH2 0x49D DUP3 PUSH2 0x472 JUMP JUMPDEST SWAP1 POP SWAP2 SWAP1 POP JUMP JUMPDEST PUSH2 0x4AD DUP2 PUSH2 0x492 JUMP JUMPDEST DUP2 EQ PUSH2 0x4B8 JUMPI PUSH1 0x0 DUP1 REVERT JUMPDEST POP JUMP JUMPDEST PUSH1 0x0 DUP2 CALLDATALOAD SWAP1 POP PUSH2 0x4CA DUP2 PUSH2 0x4A4 JUMP JUMPDEST SWAP3 SWAP2 POP POP JUMP JUMPDEST PUSH1 0x0 DUP1 PUSH1 0x40 DUP4 DUP6 SUB SLT ISZERO PUSH2 0x4E7 JUMPI PUSH2 0x4E6 PUSH2 0x322 JUMP JUMPDEST JUMPDEST PUSH1 0x0 DUP4 ADD CALLDATALOAD PUSH8 0xFFFFFFFFFFFFFFFF DUP2 GT ISZERO PUSH2 0x505 JUMPI PUSH2 0x504 PUSH2 0x327 JUMP JUMPDEST JUMPDEST PUSH2 0x511 DUP6 DUP3 DUP7 ADD PUSH2 0x444 JUMP JUMPDEST SWAP3 POP POP PUSH1 0x20 PUSH2 0x522 DUP6 DUP3 DUP7 ADD PUSH2 0x4BB JUMP JUMPDEST SWAP2 POP POP SWAP3 POP SWAP3 SWAP1 POP JUMP JUMPDEST PUSH1 0x0 PUSH2 0x537 DUP3 PUSH2 0x472 JUMP JUMPDEST SWAP1 POP SWAP2 SWAP1 POP JUMP JUMPDEST PUSH2 0x547 DUP2 PUSH2 0x52C JUMP JUMPDEST DUP2 EQ PUSH2 0x552 JUMPI PUSH1 0x0 DUP1 REVERT JUMPDEST POP JUMP JUMPDEST PUSH1 0x0 DUP2 CALLDATALOAD SWAP1 POP PUSH2 0x564 DUP2 PUSH2 0x53E JUMP JUMPDEST SWAP3 SWAP2 POP POP JUMP JUMPDEST PUSH1 0x0 PUSH1 0x20 DUP3 DUP5 SUB SLT ISZERO PUSH2 0x580 JUMPI PUSH2 0x57F PUSH2 0x322 JUMP JUMPDEST JUMPDEST PUSH1 0x0 PUSH2 0x58E DUP5 DUP3 DUP6 ADD PUSH2 0x555 JUMP JUMPDEST SWAP2 POP POP SWAP3 SWAP2 POP POP JUMP JUMPDEST PUSH1 0x0 PUSH1 0x20 DUP3 DUP5 SUB SLT ISZERO PUSH2 0x5AD JUMPI PUSH2 0x5AC PUSH2 0x322 JUMP JUMPDEST JUMPDEST PUSH1 0x0 DUP3 ADD CALLDATALOAD PUSH8 0xFFFFFFFFFFFFFFFF DUP2 GT ISZERO PUSH2 0x5CB JUMPI PUSH2 0x5CA PUSH2 0x327 JUMP JUMPDEST JUMPDEST PUSH2 0x5D7 DUP5 DUP3 DUP6 ADD PUSH2 0x444 JUMP JUMPDEST SWAP2 POP POP SWAP3 SWAP2 POP POP JUMP JUMPDEST PUSH2 0x5E9 DUP2 PUSH2 0x492 JUMP JUMPDEST DUP3 MSTORE POP POP JUMP JUMPDEST PUSH1 0x0 PUSH1 0x20 DUP3 ADD SWAP1 POP PUSH2 0x604 PUSH1 0x0 DUP4 ADD DUP5 PUSH2 0x5E0 JUMP JUMPDEST SWAP3 SWAP2 POP POP JUMP JUMPDEST PUSH1 0x0 DUP2 MLOAD SWAP1 POP SWAP2 SWAP1 POP JUMP JUMPDEST PUSH1 0x0 DUP2 SWAP1 POP SWAP3 SWAP2 POP POP JUMP JUMPDEST PUSH1 0x0 JUMPDEST DUP4 DUP2 LT ISZERO PUSH2 0x63E JUMPI DUP1 DUP3 ADD MLOAD DUP2 DUP5 ADD MSTORE PUSH1 0x20 DUP2 ADD SWAP1 POP PUSH2 0x623 JUMP JUMPDEST PUSH1 0x0 DUP5 DUP5 ADD MSTORE POP POP POP POP JUMP JUMPDEST PUSH1 0x0 PUSH2 0x655 DUP3 PUSH2 0x60A JUMP JUMPDEST PUSH2 0x65F DUP2 DUP6 PUSH2 0x615 JUMP JUMPDEST SWAP4 POP PUSH2 0x66F DUP2 DUP6 PUSH1 0x20 DUP7 ADD PUSH2 0x620 JUMP JUMPDEST DUP1 DUP5 ADD SWAP2 POP POP SWAP3 SWAP2 POP POP JUMP JUMPDEST PUSH1 0x0 PUSH2 0x687 DUP3 DUP5 PUSH2 0x64A JUMP JUMPDEST SWAP2 POP DUP2 SWAP1 POP SWAP3 SWAP2 POP POP JUMP JUMPDEST PUSH1 0x0 DUP3 DUP3 MSTORE PUSH1 0x20 DUP3 ADD SWAP1 POP SWAP3 SWAP2 POP POP JUMP JUMPDEST PUSH1 0x0 PUSH2 0x6AE DUP3 PUSH2 0x60A JUMP JUMPDEST PUSH2 0x6B8 DUP2 DUP6 PUSH2 0x692 JUMP JUMPDEST SWAP4 POP PUSH2 0x6C8 DUP2 DUP6 PUSH1 0x20 DUP7 ADD PUSH2 0x620 JUMP JUMPDEST PUSH2 0x6D1 DUP2 PUSH2 0x336 JUMP JUMPDEST DUP5 ADD SWAP2 POP POP SWAP3 SWAP2 POP POP JUMP JUMPDEST PUSH1 0x0 PUSH1 0x40 DUP3 ADD SWAP1 POP DUP2 DUP2 SUB PUSH1 0x0 DUP4 ADD MSTORE PUSH2 0x6F6 DUP2 DUP6 PUSH2 0x6A3 JUMP JUMPDEST SWAP1 POP PUSH2 0x705 PUSH1 0x20 DUP4 ADD DUP5 PUSH2 0x5E0 JUMP JUMPDEST SWAP4 SWAP3 POP POP POP JUMP JUMPDEST PUSH1 0x0 DUP2 SWAP1 POP SWAP3 SWAP2 POP POP JUMP JUMPDEST POP JUMP JUMPDEST PUSH1 0x0 PUSH2 0x727 PUSH1 0x0 DUP4 PUSH2 0x70C JUMP JUMPDEST SWAP2 POP PUSH2 0x732 DUP3 PUSH2 0x717 JUMP JUMPDEST PUSH1 0x0 DUP3 ADD SWAP1 POP SWAP2 SWAP1 POP JUMP JUMPDEST PUSH1 0x0 PUSH2 0x748 DUP3 PUSH2 0x71A JUMP JUMPDEST SWAP2 POP DUP2 SWAP1 POP SWAP2 SWAP1 POP JUMP JUMPDEST PUSH32 0x63616C6C206973204661696C6975726500000000000000000000000000000000 PUSH1 0x0 DUP3 ADD MSTORE POP JUMP JUMPDEST PUSH1 0x0 PUSH2 0x788 PUSH1 0x10 DUP4 PUSH2 0x692 JUMP JUMPDEST SWAP2 POP PUSH2 0x793 DUP3 PUSH2 0x752 JUMP JUMPDEST PUSH1 0x20 DUP3 ADD SWAP1 POP SWAP2 SWAP1 POP JUMP JUMPDEST PUSH1 0x0 PUSH1 0x20 DUP3 ADD SWAP1 POP DUP2 DUP2 SUB PUSH1 0x0 DUP4 ADD MSTORE PUSH2 0x7B7 DUP2 PUSH2 0x77B JUMP JUMPDEST SWAP1 POP SWAP2 SWAP1 POP JUMP JUMPDEST PUSH1 0x0 DUP2 ISZERO ISZERO SWAP1 POP SWAP2 SWAP1 POP JUMP JUMPDEST PUSH2 0x7D3 DUP2 PUSH2 0x7BE JUMP JUMPDEST DUP3 MSTORE POP POP JUMP JUMPDEST PUSH1 0x0 DUP2 SWAP1 POP SWAP2 SWAP1 POP JUMP JUMPDEST PUSH1 0x0 PUSH2 0x7FE PUSH2 0x7F9 PUSH2 0x7F4 DUP5 PUSH2 0x472 JUMP JUMPDEST PUSH2 0x7D9 JUMP JUMPDEST PUSH2 0x472 JUMP JUMPDEST SWAP1 POP SWAP2 SWAP1 POP JUMP JUMPDEST PUSH1 0x0 PUSH2 0x810 DUP3 PUSH2 0x7E3 JUMP JUMPDEST SWAP1 POP SWAP2 SWAP1 POP JUMP JUMPDEST PUSH1 0x0 PUSH2 0x822 DUP3 PUSH2 0x805 JUMP JUMPDEST SWAP1 POP SWAP2 SWAP1 POP JUMP JUMPDEST PUSH2 0x832 DUP2 PUSH2 0x817 JUMP JUMPDEST DUP3 MSTORE POP POP JUMP JUMPDEST PUSH1 0x0 PUSH1 0x60 DUP3 ADD SWAP1 POP PUSH2 0x84D PUSH1 0x0 DUP4 ADD DUP7 PUSH2 0x7CA JUMP JUMPDEST PUSH2 0x85A PUSH1 0x20 DUP4 ADD DUP6 PUSH2 0x5E0 JUMP JUMPDEST PUSH2 0x867 PUSH1 0x40 DUP4 ADD DUP5 PUSH2 0x829 JUMP JUMPDEST SWAP5 SWAP4 POP POP POP POP JUMP INVALID LOG2 PUSH5 0x6970667358 0x22 SLT KECCAK256 CALLVALUE 0xED RETURNDATASIZE PUSH5 0xCA3D0FF8E1 OR 0xDF PUSH29 0xC6E73450317A6765FAE7011DA20B386018EC4F4664736F6C6343000813 STOP CALLER "},"gasEstimates":{"creation":{"codeDepositCost":"442600","executionCost":"480","totalCost":"443080"},"external":{"getAddr(string)":"infinite","payToAddr(address)":"infinite","s_email_to_addr(string)":"infinite","storeEmailtoAddr(string,address)":"infinite"}},"methodIdentifiers":{"getAddr(string)":"d502db97","payToAddr(address)":"4c1582aa","s_email_to_addr(string)":"76055389","storeEmailtoAddr(string,address)":"10a9e9d2"}},"storageLayout":{"storage":[{"astId":26,"contract":"contracts/AddresstoEmail.sol:Address_to_Email","label":"s_email_to_addr","offset":0,"slot":"0","type":"t_mapping(t_string_memory_ptr,t_address)"}],"types":{"t_address":{"encoding":"inplace","label":"address","numberOfBytes":"20"},"t_mapping(t_string_memory_ptr,t_address)":{"encoding":"mapping","key":"t_string_memory_ptr","label":"mapping(string => address)","numberOfBytes":"32","value":"t_address"},"t_string_memory_ptr":{"encoding":"bytes","label":"string","numberOfBytes":"32"}}},"userdoc":{"kind":"user","methods":{},"version":1}}}}