{
  "address": "0x1459d8F74C827829ce9C0B0E3A1325EdB04b5e90",
  "abi": [
    {
      "anonymous": false,
      "inputs": [
        {
          "indexed": false,
          "internalType": "bool",
          "name": "callStatus",
          "type": "bool"
        },
        {
          "indexed": false,
          "internalType": "address",
          "name": "sender",
          "type": "address"
        },
        {
          "indexed": false,
          "internalType": "address",
          "name": "reciever",
          "type": "address"
        }
      ],
      "name": "TransactionStatus",
      "type": "event"
    },
    {
      "anonymous": false,
      "inputs": [
        {
          "indexed": false,
          "internalType": "string",
          "name": "email",
          "type": "string"
        },
        {
          "indexed": false,
          "internalType": "address",
          "name": "addr",
          "type": "address"
        }
      ],
      "name": "emailStored",
      "type": "event"
    },
    {
      "inputs": [
        {
          "internalType": "string",
          "name": "_email",
          "type": "string"
        }
      ],
      "name": "getAddr",
      "outputs": [
        {
          "internalType": "address",
          "name": "",
          "type": "address"
        }
      ],
      "stateMutability": "view",
      "type": "function"
    },
    {
      "inputs": [
        {
          "internalType": "address payable",
          "name": "_addr",
          "type": "address"
        }
      ],
      "name": "payToAddr",
      "outputs": [],
      "stateMutability": "payable",
      "type": "function"
    },
    {
      "inputs": [
        {
          "internalType": "string",
          "name": "",
          "type": "string"
        }
      ],
      "name": "s_email_to_addr",
      "outputs": [
        {
          "internalType": "address",
          "name": "",
          "type": "address"
        }
      ],
      "stateMutability": "view",
      "type": "function"
    },
    {
      "inputs": [
        {
          "internalType": "string",
          "name": "_email",
          "type": "string"
        },
        {
          "internalType": "address",
          "name": "_addr",
          "type": "address"
        }
      ],
      "name": "storeEmailtoAddr",
      "outputs": [],
      "stateMutability": "nonpayable",
      "type": "function"
    }
  ],
  "transactionHash": "0xc96488e6ee5c113d6c8298ee1c3643811512acde3b0475dc76b04c3f7b8bbc67",
  "args": [],
  "numDeployments": 1,
  "solcInputHash": "3e329c92fdd3111c1f7d79ac8ea26b8c",
  "bytecode": "0x608060405234801561001057600080fd5b506108a5806100206000396000f3fe60806040526004361061003f5760003560e01c806310a9e9d2146100445780634c1582aa1461006d5780637605538914610089578063d502db97146100c6575b600080fd5b34801561005057600080fd5b5061006b600480360381019061006691906104d0565b610103565b005b6100876004803603810190610082919061056a565b61019d565b005b34801561009557600080fd5b506100b060048036038101906100ab9190610597565b610288565b6040516100bd91906105ef565b60405180910390f35b3480156100d257600080fd5b506100ed60048036038101906100e89190610597565b6102d1565b6040516100fa91906105ef565b60405180910390f35b80600083604051610114919061067b565b908152602001604051809103902060006101000a81548173ffffffffffffffffffffffffffffffffffffffff021916908373ffffffffffffffffffffffffffffffffffffffff1602179055507f6360ad0ac3c8ab10798a0f6d8520b7ff6b11c5e9e551e31b32f412e9d9e3000582826040516101919291906106dc565b60405180910390a15050565b60008173ffffffffffffffffffffffffffffffffffffffff16346040516101c39061073d565b60006040518083038185875af1925050503d8060008114610200576040519150601f19603f3d011682016040523d82523d6000602084013e610205565b606091505b5050905080610249576040517f08c379a00000000000000000000000000000000000000000000000000000000081526004016102409061079e565b60405180910390fd5b7f41f5d8bdb5631ef260ce5fb88cf0a48c22d261827bebce333beb5963b3fe3edd81338460405161027c93929190610838565b60405180910390a15050565b6000818051602081018201805184825260208301602085012081835280955050505050506000915054906101000a900473ffffffffffffffffffffffffffffffffffffffff1681565b600080826040516102e2919061067b565b908152602001604051809103902060009054906101000a900473ffffffffffffffffffffffffffffffffffffffff169050919050565b6000604051905090565b600080fd5b600080fd5b600080fd5b600080fd5b6000601f19601f8301169050919050565b7f4e487b7100000000000000000000000000000000000000000000000000000000600052604160045260246000fd5b61037f82610336565b810181811067ffffffffffffffff8211171561039e5761039d610347565b5b80604052505050565b60006103b1610318565b90506103bd8282610376565b919050565b600067ffffffffffffffff8211156103dd576103dc610347565b5b6103e682610336565b9050602081019050919050565b82818337600083830152505050565b6000610415610410846103c2565b6103a7565b90508281526020810184848401111561043157610430610331565b5b61043c8482856103f3565b509392505050565b600082601f8301126104595761045861032c565b5b8135610469848260208601610402565b91505092915050565b600073ffffffffffffffffffffffffffffffffffffffff82169050919050565b600061049d82610472565b9050919050565b6104ad81610492565b81146104b857600080fd5b50565b6000813590506104ca816104a4565b92915050565b600080604083850312156104e7576104e6610322565b5b600083013567ffffffffffffffff81111561050557610504610327565b5b61051185828601610444565b9250506020610522858286016104bb565b9150509250929050565b600061053782610472565b9050919050565b6105478161052c565b811461055257600080fd5b50565b6000813590506105648161053e565b92915050565b6000602082840312156105805761057f610322565b5b600061058e84828501610555565b91505092915050565b6000602082840312156105ad576105ac610322565b5b600082013567ffffffffffffffff8111156105cb576105ca610327565b5b6105d784828501610444565b91505092915050565b6105e981610492565b82525050565b600060208201905061060460008301846105e0565b92915050565b600081519050919050565b600081905092915050565b60005b8381101561063e578082015181840152602081019050610623565b60008484015250505050565b60006106558261060a565b61065f8185610615565b935061066f818560208601610620565b80840191505092915050565b6000610687828461064a565b915081905092915050565b600082825260208201905092915050565b60006106ae8261060a565b6106b88185610692565b93506106c8818560208601610620565b6106d181610336565b840191505092915050565b600060408201905081810360008301526106f681856106a3565b905061070560208301846105e0565b9392505050565b600081905092915050565b50565b600061072760008361070c565b915061073282610717565b600082019050919050565b60006107488261071a565b9150819050919050565b7f63616c6c206973204661696c6975726500000000000000000000000000000000600082015250565b6000610788601083610692565b915061079382610752565b602082019050919050565b600060208201905081810360008301526107b78161077b565b9050919050565b60008115159050919050565b6107d3816107be565b82525050565b6000819050919050565b60006107fe6107f96107f484610472565b6107d9565b610472565b9050919050565b6000610810826107e3565b9050919050565b600061082282610805565b9050919050565b61083281610817565b82525050565b600060608201905061084d60008301866107ca565b61085a60208301856105e0565b6108676040830184610829565b94935050505056fea264697066735822122034ed3d64ca3d0ff8e117df7cc6e73450317a6765fae7011da20b386018ec4f4664736f6c63430008130033",
  "devdoc": {
    "kind": "dev",
    "methods": {},
    "version": 1
  },
  "userdoc": {
    "kind": "user",
    "methods": {},
    "version": 1
  },
  "storageLayout": {
    "storage": [
      {
        "astId": 26,
        "contract": "contracts/AddresstoEmail.sol:Address_to_Email",
        "label": "s_email_to_addr",
        "offset": 0,
        "slot": "0",
        "type": "t_mapping(t_string_memory_ptr,t_address)"
      }
    ],
    "types": {
      "t_address": {
        "encoding": "inplace",
        "label": "address",
        "numberOfBytes": "20"
      },
      "t_mapping(t_string_memory_ptr,t_address)": {
        "encoding": "mapping",
        "key": "t_string_memory_ptr",
        "label": "mapping(string => address)",
        "numberOfBytes": "32",
        "value": "t_address"
      },
      "t_string_memory_ptr": {
        "encoding": "bytes",
        "label": "string",
        "numberOfBytes": "32"
      }
    }
  }
}